:100000000EC028C027C026C025C024C023C022C0DF
:1000100021C020C020C01EC01DC01CC01BC0112498
:100020001FBECFE5D2E0DEBFCDBF11E0A0E6B0E05D
:10003000EAEFF3E002C005900D92A236B107D9F7BE
:1000400021E0A2E6B1E001C01D92AF36B207E1F7B0
:100050008AD1D1C1D5CF1F920F920FB60F92112422
:100060002F933F934F935F936F937F938F939F93C0
:10007000AF93BF93CF93EF93FF93C09A40916D01DD
:1000800050916E01452F5527C42FFA01EE59FF4FAD
:1000900020812058022E000C330B80916901909131
:1000A0006A01FA0181159042A0F4EE0FFF1FA42F00
:1000B000AA0FB0E0AE59BF4F9C9180E8890F87FF2F
:1000C00002C083E8890F85958595280F311D87FD2E
:1000D0003A958091690190916A018535954170F456
:1000E000E40FF51FDF01BB27AE59BF4F8C9180583D
:1000F00069E068D1280F311D87FD3A95809169012B
:1001000090916A0181159041A8F4E40FF51FDF0179
:10011000BB27AE59BF4F9C9180E8890F87FF02C073
:100120008FE8890F8595859585958595280F311DD3
:1001300087FD3A958091690190916A018C3C9C40C1
:1001400068F4E40FF51FFF27EE59FF4F80818058B8
:1001500064E138D1280F311D87FD3A9580916901FE
:1001600090916A018636964008F491C037FF02C02C
:100170002D5F3F4F359527953595279520582EBDF6
:1001800080916B0190916C01019690936C0180932A
:100190006B018F709927892B41F524B195B1892F77
:1001A00090E0982F8827280F392F311D369A2C3F41
:1001B00083E0380708F479C0109261001092600063
:1001C00080916801882389F080916B0190916C0186
:1001D0009F708115944048F4809166019091670169
:1001E0009C5F90936100809360002091600030914B
:1001F000610080916D0190916E01820F931F909329
:100200006E0180936D0180916B0190916C0101965C
:100210008F719927892B09F08AC086B38470209149
:100220006401309165012130310509F465C0223047
:10023000310509F46BC0232B09F06BC0811106C096
:1002400081E090E090936501809364018091640166
:10025000909165018130910509F460C0823091056B
:1002600009F478C0892B09F062C0809162019091F5
:100270006301892B09F45BC08091680191E08927B3
:1002800080936801109263011092620150C08FEB5D
:10029000841BC03420F480EE840F880F880F63E045
:1002A00091D0282F880F330B69CF809169019091ED
:1002B0006A014091690150916A0164E05695479541
:1002C0006A95E1F7841B950B820F931F90936A0147
:1002D000809369018091690190916A0190936A010C
:1002E000809369018091690190916A019C5F90936C
:1002F00061008093600064CF2091620130916301BE
:100300002139314018F082E090E09CCF882309F435
:100310009DCF109265011092640198CF8091620187
:100320009091630101969093630180936201C0985C
:10033000FF91EF91CF91BF91AF919F918F917F915D
:100340006F915F914F913F912F910F900FBE0F9042
:100350001F9018958091690190916A0190936701AF
:10036000809366018FCF83E08ABD83BF789480E459
:100370008CBD9FEF9DBD87EC80BF86E886B9B99A9A
:10038000B89ABA98C29A1CBC82E08ABD83BF83E641
:1003900089BD19BE89B7806189BF81EE80BF9DBDCF
:1003A00087B5826087BD07B400FEFDCF87B5846046
:1003B00087BD86E887B986EC86B984E083B988E191
:1003C00084BBFFCF87FB082E062687FD819567FD3E
:1003D000619505D00EF4919507FC81950895991BC0
:1003E00079E004C0991F961708F0961B881F7A952C
:0A03F000C9F780950895F894FFCF37
:1003FA00D007808386898C8F9295989B9EA2A5A709
:10040A00AAADB0B3B6B9BCBEC1C4C6C9CBCED0D3EF
:10041A00D5D7DADCDEE0E2E4E6E8EAEBEDEEF0F18D
:10042A00F3F4F5F6F8F9FAFAFBFCFDFDFEFEFEFF21
:10043A00FFFFFFFFFFFFFEFEFEFDFDFCFBFAFAF9E0
:10044A00F8F6F5F4F3F1F0EEEDEBEAE8E6E4E2E0D3
:10045A00DEDCDAD7D5D3D0CECBC9C6C4C1BEBCB9CF
:10046A00B6B3B0ADAAA7A5A29E9B9895928F8C8988
:10047A008683807C797673706D6A6764615D5A5889
:10048A0055524F4C494643413E3B393634312F2C65
:10049A002A282523211F1D1B1917151412110F0EA7
:1004AA000C0B0A09070605050403020201010100F3
:1004BA000000000000000101010202030405050614
:1004CA0007090A0B0C0E0F1112141517191B1D1F01
:1004DA00212325282A2C2F313436393B3E414346E5
:1004EA00494C4F5255585A5D6164676A6D7073760C
:0204FA00797C0B
:00000001FF
